{
  "_format": "hh-sol-artifact-1",
  "contractName": "Meow",
  "sourceName": "contracts/MEOW.sol",
  "abi": [
    {
      "inputs": [
        {
          "internalType": "address",
          "name": "_nftAddress",
          "type": "address"
        },
        {
          "internalType": "address",
          "name": "_teamAddress",
          "type": "address"
        }
      ],
      "stateMutability": "nonpayable",
      "type": "constructor"
    },
    {
      "anonymous": false,
      "inputs": [
        {
          "indexed": true,
          "internalType": "address",
          "name": "owner",
          "type": "address"
        },
        {
          "indexed": true,
          "internalType": "address",
          "name": "spender",
          "type": "address"
        },
        {
          "indexed": false,
          "internalType": "uint256",
          "name": "value",
          "type": "uint256"
        }
      ],
      "name": "Approval",
      "type": "event"
    },
    {
      "anonymous": false,
      "inputs": [
        {
          "indexed": false,
          "internalType": "uint256",
          "name": "tokenId1",
          "type": "uint256"
        },
        {
          "indexed": false,
          "internalType": "uint256",
          "name": "tokenId2",
          "type": "uint256"
        }
      ],
      "name": "GameStarted",
      "type": "event"
    },
    {
      "anonymous": false,
      "inputs": [
        {
          "indexed": true,
          "internalType": "address",
          "name": "previousOwner",
          "type": "address"
        },
        {
          "indexed": true,
          "internalType": "address",
          "name": "newOwner",
          "type": "address"
        }
      ],
      "name": "OwnershipTransferred",
      "type": "event"
    },
    {
      "anonymous": false,
      "inputs": [
        {
          "indexed": true,
          "internalType": "address",
          "name": "from",
          "type": "address"
        },
        {
          "indexed": true,
          "internalType": "address",
          "name": "to",
          "type": "address"
        },
        {
          "indexed": false,
          "internalType": "uint256",
          "name": "value",
          "type": "uint256"
        }
      ],
      "name": "Transfer",
      "type": "event"
    },
    {
      "inputs": [
        {
          "internalType": "address",
          "name": "owner",
          "type": "address"
        },
        {
          "internalType": "address",
          "name": "spender",
          "type": "address"
        }
      ],
      "name": "allowance",
      "outputs": [
        {
          "internalType": "uint256",
          "name": "",
          "type": "uint256"
        }
      ],
      "stateMutability": "view",
      "type": "function"
    },
    {
      "inputs": [
        {
          "internalType": "address",
          "name": "spender",
          "type": "address"
        },
        {
          "internalType": "uint256",
          "name": "amount",
          "type": "uint256"
        }
      ],
      "name": "approve",
      "outputs": [
        {
          "internalType": "bool",
          "name": "",
          "type": "bool"
        }
      ],
      "stateMutability": "nonpayable",
      "type": "function"
    },
    {
      "inputs": [
        {
          "internalType": "address",
          "name": "account",
          "type": "address"
        }
      ],
      "name": "balanceOf",
      "outputs": [
        {
          "internalType": "uint256",
          "name": "",
          "type": "uint256"
        }
      ],
      "stateMutability": "view",
      "type": "function"
    },
    {
      "inputs": [],
      "name": "decimals",
      "outputs": [
        {
          "internalType": "uint8",
          "name": "",
          "type": "uint8"
        }
      ],
      "stateMutability": "view",
      "type": "function"
    },
    {
      "inputs": [
        {
          "internalType": "address",
          "name": "spender",
          "type": "address"
        },
        {
          "internalType": "uint256",
          "name": "subtractedValue",
          "type": "uint256"
        }
      ],
      "name": "decreaseAllowance",
      "outputs": [
        {
          "internalType": "bool",
          "name": "",
          "type": "bool"
        }
      ],
      "stateMutability": "nonpayable",
      "type": "function"
    },
    {
      "inputs": [],
      "name": "gamePrice",
      "outputs": [
        {
          "internalType": "uint256",
          "name": "",
          "type": "uint256"
        }
      ],
      "stateMutability": "view",
      "type": "function"
    },
    {
      "inputs": [
        {
          "internalType": "address",
          "name": "spender",
          "type": "address"
        },
        {
          "internalType": "uint256",
          "name": "addedValue",
          "type": "uint256"
        }
      ],
      "name": "increaseAllowance",
      "outputs": [
        {
          "internalType": "bool",
          "name": "",
          "type": "bool"
        }
      ],
      "stateMutability": "nonpayable",
      "type": "function"
    },
    {
      "inputs": [],
      "name": "jackpotAmount",
      "outputs": [
        {
          "internalType": "uint256",
          "name": "",
          "type": "uint256"
        }
      ],
      "stateMutability": "view",
      "type": "function"
    },
    {
      "inputs": [
        {
          "internalType": "uint256",
          "name": "tokenId",
          "type": "uint256"
        }
      ],
      "name": "joinLobby",
      "outputs": [],
      "stateMutability": "payable",
      "type": "function"
    },
    {
      "inputs": [
        {
          "internalType": "uint256",
          "name": "tokenId",
          "type": "uint256"
        }
      ],
      "name": "leaveLobby",
      "outputs": [],
      "stateMutability": "nonpayable",
      "type": "function"
    },
    {
      "inputs": [],
      "name": "name",
      "outputs": [
        {
          "internalType": "string",
          "name": "",
          "type": "string"
        }
      ],
      "stateMutability": "view",
      "type": "function"
    },
    {
      "inputs": [],
      "name": "owner",
      "outputs": [
        {
          "internalType": "address",
          "name": "",
          "type": "address"
        }
      ],
      "stateMutability": "view",
      "type": "function"
    },
    {
      "inputs": [],
      "name": "renounceOwnership",
      "outputs": [],
      "stateMutability": "nonpayable",
      "type": "function"
    },
    {
      "inputs": [
        {
          "internalType": "uint256",
          "name": "newGamePrice",
          "type": "uint256"
        }
      ],
      "name": "setGamePrice",
      "outputs": [],
      "stateMutability": "nonpayable",
      "type": "function"
    },
    {
      "inputs": [
        {
          "internalType": "address",
          "name": "newNftAddress",
          "type": "address"
        }
      ],
      "name": "setNftAddress",
      "outputs": [],
      "stateMutability": "nonpayable",
      "type": "function"
    },
    {
      "inputs": [
        {
          "internalType": "address",
          "name": "newTeamAddress",
          "type": "address"
        }
      ],
      "name": "setTeamAddress",
      "outputs": [],
      "stateMutability": "nonpayable",
      "type": "function"
    },
    {
      "inputs": [
        {
          "internalType": "uint256",
          "name": "amount",
          "type": "uint256"
        }
      ],
      "name": "stake",
      "outputs": [],
      "stateMutability": "nonpayable",
      "type": "function"
    },
    {
      "inputs": [
        {
          "internalType": "address",
          "name": "",
          "type": "address"
        }
      ],
      "name": "stakeAmount",
      "outputs": [
        {
          "internalType": "uint256",
          "name": "",
          "type": "uint256"
        }
      ],
      "stateMutability": "view",
      "type": "function"
    },
    {
      "inputs": [],
      "name": "stakeTotal",
      "outputs": [
        {
          "internalType": "uint256",
          "name": "",
          "type": "uint256"
        }
      ],
      "stateMutability": "view",
      "type": "function"
    },
    {
      "inputs": [],
      "name": "symbol",
      "outputs": [
        {
          "internalType": "string",
          "name": "",
          "type": "string"
        }
      ],
      "stateMutability": "view",
      "type": "function"
    },
    {
      "inputs": [],
      "name": "teamAddress",
      "outputs": [
        {
          "internalType": "address",
          "name": "",
          "type": "address"
        }
      ],
      "stateMutability": "view",
      "type": "function"
    },
    {
      "inputs": [],
      "name": "totalSupply",
      "outputs": [
        {
          "internalType": "uint256",
          "name": "",
          "type": "uint256"
        }
      ],
      "stateMutability": "view",
      "type": "function"
    },
    {
      "inputs": [
        {
          "internalType": "address",
          "name": "to",
          "type": "address"
        },
        {
          "internalType": "uint256",
          "name": "amount",
          "type": "uint256"
        }
      ],
      "name": "transfer",
      "outputs": [
        {
          "internalType": "bool",
          "name": "",
          "type": "bool"
        }
      ],
      "stateMutability": "nonpayable",
      "type": "function"
    },
    {
      "inputs": [
        {
          "internalType": "address",
          "name": "from",
          "type": "address"
        },
        {
          "internalType": "address",
          "name": "to",
          "type": "address"
        },
        {
          "internalType": "uint256",
          "name": "amount",
          "type": "uint256"
        }
      ],
      "name": "transferFrom",
      "outputs": [
        {
          "internalType": "bool",
          "name": "",
          "type": "bool"
        }
      ],
      "stateMutability": "nonpayable",
      "type": "function"
    },
    {
      "inputs": [
        {
          "internalType": "address",
          "name": "newOwner",
          "type": "address"
        }
      ],
      "name": "transferOwnership",
      "outputs": [],
      "stateMutability": "nonpayable",
      "type": "function"
    },
    {
      "inputs": [
        {
          "internalType": "uint256",
          "name": "amount",
          "type": "uint256"
        }
      ],
      "name": "unStake",
      "outputs": [],
      "stateMutability": "nonpayable",
      "type": "function"
    },
    {
      "inputs": [],
      "name": "waitingId",
      "outputs": [
        {
          "internalType": "uint256",
          "name": "",
          "type": "uint256"
        }
      ],
      "stateMutability": "view",
      "type": "function"
    }
  ],
  "bytecode": "0x6080604052662386f26fc1000060085560006009556000600c553480156200002657600080fd5b50604051620036753803806200367583398181016040528101906200004c9190620002f4565b6040518060400160405280600481526020017f4d656f77000000000000000000000000000000000000000000000000000000008152506040518060400160405280600481526020017f4d656f77000000000000000000000000000000000000000000000000000000008152508160039081620000c99190620005b5565b508060049081620000db9190620005b5565b505050620000fe620000f2620001bc60201b60201c565b620001c460201b60201c565b81600660006101000a81548173ffffffffffffffffffffffffffffffffffffffff021916908373ffffffffffffffffffffffffffffffffffffffff16021790555080600b60006101000a81548173ffffffffffffffffffffffffffffffffffffffff021916908373ffffffffffffffffffffffffffffffffffffffff160217905550424460405160200162000195929190620006c1565b6040516020818303038152906040528051906020012060001c6007819055505050620006f1565b600033905090565b6000600560009054906101000a900473ffffffffffffffffffffffffffffffffffffffff16905081600560006101000a81548173ffffffffffffffffffffffffffffffffffffffff021916908373ffffffffffffffffffffffffffffffffffffffff1602179055508173ffffffffffffffffffffffffffffffffffffffff168173ffffffffffffffffffffffffffffffffffffffff167f8be0079c531659141344cd1fd0a4f28419497f9722a3daafe3b4186f6b6457e060405160405180910390a35050565b600080fd5b600073ffffffffffffffffffffffffffffffffffffffff82169050919050565b6000620002bc826200028f565b9050919050565b620002ce81620002af565b8114620002da57600080fd5b50565b600081519050620002ee81620002c3565b92915050565b600080604083850312156200030e576200030d6200028a565b5b60006200031e85828601620002dd565b92505060206200033185828601620002dd565b9150509250929050565b600081519050919050565b7f4e487b7100000000000000000000000000000000000000000000000000000000600052604160045260246000fd5b7f4e487b7100000000000000000000000000000000000000000000000000000000600052602260045260246000fd5b60006002820490506001821680620003bd57607f821691505b602082108103620003d357620003d262000375565b5b50919050565b60008190508160005260206000209050919050565b60006020601f8301049050919050565b600082821b905092915050565b6000600883026200043d7fffffffffffffffffffffffffffffffffffffffffffffffffffffffffffffffff82620003fe565b620004498683620003fe565b95508019841693508086168417925050509392505050565b6000819050919050565b6000819050919050565b600062000496620004906200048a8462000461565b6200046b565b62000461565b9050919050565b6000819050919050565b620004b28362000475565b620004ca620004c1826200049d565b8484546200040b565b825550505050565b600090565b620004e1620004d2565b620004ee818484620004a7565b505050565b5b8181101562000516576200050a600082620004d7565b600181019050620004f4565b5050565b601f82111562000565576200052f81620003d9565b6200053a84620003ee565b810160208510156200054a578190505b620005626200055985620003ee565b830182620004f3565b50505b505050565b600082821c905092915050565b60006200058a600019846008026200056a565b1980831691505092915050565b6000620005a5838362000577565b9150826002028217905092915050565b620005c0826200033b565b67ffffffffffffffff811115620005dc57620005db62000346565b5b620005e88254620003a4565b620005f58282856200051a565b600060209050601f8311600181146200062d576000841562000618578287015190505b62000624858262000597565b86555062000694565b601f1984166200063d86620003d9565b60005b82811015620006675784890151825560018201915060208501945060208101905062000640565b8683101562000687578489015162000683601f89168262000577565b8355505b6001600288020188555050505b505050505050565b6000819050919050565b620006bb620006b58262000461565b6200069c565b82525050565b6000620006cf8285620006a6565b602082019150620006e18284620006a6565b6020820191508190509392505050565b612f7480620007016000396000f3fe60806040526004361061019c5760003560e01c8063715018a6116100ec578063a694fc3a1161008a578063bf13526711610064578063bf135267146105ca578063dd62ed3e14610607578063e9173b3a14610644578063f2fde38b146106605761019c565b8063a694fc3a14610539578063a9059cbb14610562578063b1eac37e1461059f5761019c565b8063948428f0116100c6578063948428f01461047d57806395d89b41146104a657806396bf15bf146104d1578063a457c2d7146104fc5761019c565b8063715018a6146104105780638c680c0f146104275780638da5cb5b146104525761019c565b806326126d46116101595780634b5c8bdf116101335780634b5c8bdf146103565780635d3eea91146103815780636690864e146103aa57806370a08231146103d35761019c565b806326126d46146102c5578063313ce567146102ee57806339509351146103195761019c565b806306fdde03146101a1578063095ea7b3146101cc5780630b102d1a1461020957806318160ddd146102325780631c75f0851461025d57806323b872dd14610288575b600080fd5b3480156101ad57600080fd5b506101b6610689565b6040516101c39190612124565b60405180910390f35b3480156101d857600080fd5b506101f360048036038101906101ee91906121df565b61071b565b604051610200919061223a565b60405180910390f35b34801561021557600080fd5b50610230600480360381019061022b9190612255565b61073e565b005b34801561023e57600080fd5b5061024761078a565b6040516102549190612291565b60405180910390f35b34801561026957600080fd5b50610272610794565b60405161027f91906122bb565b60405180910390f35b34801561029457600080fd5b506102af60048036038101906102aa91906122d6565b6107ba565b6040516102bc919061223a565b60405180910390f35b3480156102d157600080fd5b506102ec60048036038101906102e79190612329565b6107e9565b005b3480156102fa57600080fd5b506103036107fb565b6040516103109190612372565b60405180910390f35b34801561032557600080fd5b50610340600480360381019061033b91906121df565b610804565b60405161034d919061223a565b60405180910390f35b34801561036257600080fd5b5061036b61083b565b6040516103789190612291565b60405180910390f35b34801561038d57600080fd5b506103a860048036038101906103a39190612329565b610841565b005b3480156103b657600080fd5b506103d160048036038101906103cc9190612255565b610b13565b005b3480156103df57600080fd5b506103fa60048036038101906103f59190612255565b610b5f565b6040516104079190612291565b60405180910390f35b34801561041c57600080fd5b50610425610ba7565b005b34801561043357600080fd5b5061043c610bbb565b6040516104499190612291565b60405180910390f35b34801561045e57600080fd5b50610467610bc1565b60405161047491906122bb565b60405180910390f35b34801561048957600080fd5b506104a4600480360381019061049f9190612329565b610beb565b005b3480156104b257600080fd5b506104bb610d4a565b6040516104c89190612124565b60405180910390f35b3480156104dd57600080fd5b506104e6610ddc565b6040516104f39190612291565b60405180910390f35b34801561050857600080fd5b50610523600480360381019061051e91906121df565b610de2565b604051610530919061223a565b60405180910390f35b34801561054557600080fd5b50610560600480360381019061055b9190612329565b610e59565b005b34801561056e57600080fd5b50610589600480360381019061058491906121df565b610f82565b604051610596919061223a565b60405180910390f35b3480156105ab57600080fd5b506105b4610fa5565b6040516105c19190612291565b60405180910390f35b3480156105d657600080fd5b506105f160048036038101906105ec9190612255565b610fab565b6040516105fe9190612291565b60405180910390f35b34801561061357600080fd5b5061062e6004803603810190610629919061238d565b610fc3565b60405161063b9190612291565b60405180910390f35b61065e60048036038101906106599190612329565b61104a565b005b34801561066c57600080fd5b5061068760048036038101906106829190612255565b611256565b005b606060038054610698906123fc565b80601f01602080910402602001604051908101604052809291908181526020018280546106c4906123fc565b80156107115780601f106106e657610100808354040283529160200191610711565b820191906000526020600020905b8154815290600101906020018083116106f457829003601f168201915b5050505050905090565b6000806107266112d9565b90506107338185856112e1565b600191505092915050565b6107466114aa565b80600660006101000a81548173ffffffffffffffffffffffffffffffffffffffff021916908373ffffffffffffffffffffffffffffffffffffffff16021790555050565b6000600254905090565b600b60009054906101000a900473ffffffffffffffffffffffffffffffffffffffff1681565b6000806107c56112d9565b90506107d2858285611528565b6107dd8585856115b4565b60019150509392505050565b6107f16114aa565b8060088190555050565b60006001905090565b60008061080f6112d9565b90506108308185856108218589610fc3565b61082b919061245c565b6112e1565b600191505092915050565b600f5481565b600e60003373ffffffffffffffffffffffffffffffffffffffff1673ffffffffffffffffffffffffffffffffffffffff1681526020019081526020016000205481106108c2576040517f08c379a00000000000000000000000000000000000000000000000000000000081526004016108b990612502565b60405180910390fd5b6108cc3382610f82565b5080600e60003373ffffffffffffffffffffffffffffffffffffffff1673ffffffffffffffffffffffffffffffffffffffff1681526020019081526020016000205403610aa15760005b600d80549050811015610a58573373ffffffffffffffffffffffffffffffffffffffff16600d828154811061094e5761094d612522565b5b9060005260206000200160009054906101000a900473ffffffffffffffffffffffffffffffffffffffff1673ffffffffffffffffffffffffffffffffffffffff1603610a4557600d6001600d805490506109a89190612551565b815481106109b9576109b8612522565b5b9060005260206000200160009054906101000a900473ffffffffffffffffffffffffffffffffffffffff16600d82815481106109f8576109f7612522565b5b9060005260206000200160006101000a81548173ffffffffffffffffffffffffffffffffffffffff021916908373ffffffffffffffffffffffffffffffffffffffff160217905550610a58565b8080610a5090612585565b915050610916565b50600d805480610a6b57610a6a6125cd565b5b6001900381819060005260206000200160006101000a81549073ffffffffffffffffffffffffffffffffffffffff021916905590555b80600e60003373ffffffffffffffffffffffffffffffffffffffff1673ffffffffffffffffffffffffffffffffffffffff1681526020019081526020016000206000828254610af09190612551565b9250508190555080600f6000828254610b099190612551565b9250508190555050565b610b1b6114aa565b80600b60006101000a81548173ffffffffffffffffffffffffffffffffffffffff021916908373ffffffffffffffffffffffffffffffffffffffff16021790555050565b60008060008373ffffffffffffffffffffffffffffffffffffffff1673ffffffffffffffffffffffffffffffffffffffff168152602001908152602001600020549050919050565b610baf6114aa565b610bb9600061182a565b565b60095481565b6000600560009054906101000a900473ffffffffffffffffffffffffffffffffffffffff16905090565b610bf36112d9565b73ffffffffffffffffffffffffffffffffffffffff16600660009054906101000a900473ffffffffffffffffffffffffffffffffffffffff1673ffffffffffffffffffffffffffffffffffffffff16636352211e836040518263ffffffff1660e01b8152600401610c649190612291565b602060405180830381865afa158015610c81573d6000803e3d6000fd5b505050506040513d601f19601f82011682018060405250810190610ca59190612611565b73ffffffffffffffffffffffffffffffffffffffff1614610cfb576040517f08c379a0000000000000000000000000000000000000000000000000000000008152600401610cf29061268a565b60405180910390fd5b8060095414610d3f576040517f08c379a0000000000000000000000000000000000000000000000000000000008152600401610d36906126f6565b60405180910390fd5b600060098190555050565b606060048054610d59906123fc565b80601f0160208091040260200160405190810160405280929190818152602001828054610d85906123fc565b8015610dd25780601f10610da757610100808354040283529160200191610dd2565b820191906000526020600020905b815481529060010190602001808311610db557829003601f168201915b5050505050905090565b60085481565b600080610ded6112d9565b90506000610dfb8286610fc3565b905083811015610e40576040517f08c379a0000000000000000000000000000000000000000000000000000000008152600401610e3790612788565b60405180910390fd5b610e4d82868684036112e1565b60019250505092915050565b610e643330836107ba565b506000600e60003373ffffffffffffffffffffffffffffffffffffffff1673ffffffffffffffffffffffffffffffffffffffff1681526020019081526020016000205403610f1057600d339080600181540180825580915050600190039060005260206000200160009091909190916101000a81548173ffffffffffffffffffffffffffffffffffffffff021916908373ffffffffffffffffffffffffffffffffffffffff1602179055505b80600e60003373ffffffffffffffffffffffffffffffffffffffff1673ffffffffffffffffffffffffffffffffffffffff1681526020019081526020016000206000828254610f5f919061245c565b9250508190555080600f6000828254610f78919061245c565b9250508190555050565b600080610f8d6112d9565b9050610f9a8185856115b4565b600191505092915050565b600c5481565b600e6020528060005260406000206000915090505481565b6000600160008473ffffffffffffffffffffffffffffffffffffffff1673ffffffffffffffffffffffffffffffffffffffff16815260200190815260200160002060008373ffffffffffffffffffffffffffffffffffffffff1673ffffffffffffffffffffffffffffffffffffffff16815260200190815260200160002054905092915050565b806009540361108e576040517f08c379a0000000000000000000000000000000000000000000000000000000008152600401611085906127f4565b60405180910390fd5b6110966112d9565b73ffffffffffffffffffffffffffffffffffffffff16600660009054906101000a900473ffffffffffffffffffffffffffffffffffffffff1673ffffffffffffffffffffffffffffffffffffffff16636352211e836040518263ffffffff1660e01b81526004016111079190612291565b602060405180830381865afa158015611124573d6000803e3d6000fd5b505050506040513d601f19601f820116820180604052508101906111489190612611565b73ffffffffffffffffffffffffffffffffffffffff161461119e576040517f08c379a00000000000000000000000000000000000000000000000000000000081526004016111959061268a565b60405180910390fd5b34600854146111e2576040517f08c379a00000000000000000000000000000000000000000000000000000000081526004016111d990612860565b60405180910390fd5b60006009540361120657806009819055506111fb6118f0565b600a81905550611253565b61120f8161193d565b7fa2dfaa3573b86004ec9d4d4abe5068d942579c59da4da8cd0d9e45e71a393bc160095482604051611242929190612880565b60405180910390a160006009819055505b50565b61125e6114aa565b600073ffffffffffffffffffffffffffffffffffffffff168173ffffffffffffffffffffffffffffffffffffffff16036112cd576040517f08c379a00000000000000000000000000000000000000000000000000000000081526004016112c49061291b565b60405180910390fd5b6112d68161182a565b50565b600033905090565b600073ffffffffffffffffffffffffffffffffffffffff168373ffffffffffffffffffffffffffffffffffffffff1603611350576040517f08c379a0000000000000000000000000000000000000000000000000000000008152600401611347906129ad565b60405180910390fd5b600073ffffffffffffffffffffffffffffffffffffffff168273ffffffffffffffffffffffffffffffffffffffff16036113bf576040517f08c379a00000000000000000000000000000000000000000000000000000000081526004016113b690612a3f565b60405180910390fd5b80600160008573ffffffffffffffffffffffffffffffffffffffff1673ffffffffffffffffffffffffffffffffffffffff16815260200190815260200160002060008473ffffffffffffffffffffffffffffffffffffffff1673ffffffffffffffffffffffffffffffffffffffff168152602001908152602001600020819055508173ffffffffffffffffffffffffffffffffffffffff168373ffffffffffffffffffffffffffffffffffffffff167f8c5be1e5ebec7d5bd14f71427d1e84f3dd0314c0f7b2291e5b200ac8c7c3b9258360405161149d9190612291565b60405180910390a3505050565b6114b26112d9565b73ffffffffffffffffffffffffffffffffffffffff166114d0610bc1565b73ffffffffffffffffffffffffffffffffffffffff1614611526576040517f08c379a000000000000000000000000000000000000000000000000000000000815260040161151d90612aab565b60405180910390fd5b565b60006115348484610fc3565b90507fffffffffffffffffffffffffffffffffffffffffffffffffffffffffffffffff81146115ae57818110156115a0576040517f08c379a000000000000000000000000000000000000000000000000000000000815260040161159790612b17565b60405180910390fd5b6115ad84848484036112e1565b5b50505050565b600073ffffffffffffffffffffffffffffffffffffffff168373ffffffffffffffffffffffffffffffffffffffff1603611623576040517f08c379a000000000000000000000000000000000000000000000000000000000815260040161161a90612ba9565b60405180910390fd5b600073ffffffffffffffffffffffffffffffffffffffff168273ffffffffffffffffffffffffffffffffffffffff1603611692576040517f08c379a000000000000000000000000000000000000000000000000000000000815260040161168990612c3b565b60405180910390fd5b61169d838383611c9f565b60008060008573ffffffffffffffffffffffffffffffffffffffff1673ffffffffffffffffffffffffffffffffffffffff16815260200190815260200160002054905081811015611723576040517f08c379a000000000000000000000000000000000000000000000000000000000815260040161171a90612ccd565b60405180910390fd5b8181036000808673ffffffffffffffffffffffffffffffffffffffff1673ffffffffffffffffffffffffffffffffffffffff16815260200190815260200160002081905550816000808573ffffffffffffffffffffffffffffffffffffffff1673ffffffffffffffffffffffffffffffffffffffff168152602001908152602001600020600082825401925050819055508273ffffffffffffffffffffffffffffffffffffffff168473ffffffffffffffffffffffffffffffffffffffff167fddf252ad1be2c89b69c2b068fc378daa952ba7f163c4a11628f55a4df523b3ef846040516118119190612291565b60405180910390a3611824848484611ca4565b50505050565b6000600560009054906101000a900473ffffffffffffffffffffffffffffffffffffffff16905081600560006101000a81548173ffffffffffffffffffffffffffffffffffffffff021916908373ffffffffffffffffffffffffffffffffffffffff1602179055508173ffffffffffffffffffffffffffffffffffffffff168173ffffffffffffffffffffffffffffffffffffffff167f8be0079c531659141344cd1fd0a4f28419497f9722a3daafe3b4186f6b6457e060405160405180910390a35050565b60006001620186a0423360405160200161190b929190612d56565b6040516020818303038152906040528051906020012060001c61192e9190612db1565b611938919061245c565b905090565b60006119476118f0565b90506000600660009054906101000a900473ffffffffffffffffffffffffffffffffffffffff1673ffffffffffffffffffffffffffffffffffffffff16636352211e6009546040518263ffffffff1660e01b81526004016119a89190612291565b602060405180830381865afa1580156119c5573d6000803e3d6000fd5b505050506040513d601f19601f820116820180604052508101906119e99190612611565b90506000600660009054906101000a900473ffffffffffffffffffffffffffffffffffffffff1673ffffffffffffffffffffffffffffffffffffffff16636352211e856040518263ffffffff1660e01b8152600401611a489190612291565b602060405180830381865afa158015611a65573d6000803e3d6000fd5b505050506040513d601f19601f82011682018060405250810190611a899190612611565b9050611a96826001611ca9565b611aa1816001611ca9565b82600a5403611ac757611ab682600854611dff565b611ac281600854611dff565b611c69565b82600a541115611b7357611add82600854611dff565b600660009054906101000a900473ffffffffffffffffffffffffffffffffffffffff1673ffffffffffffffffffffffffffffffffffffffff166323b872dd8284876040518463ffffffff1660e01b8152600401611b3c93929190612de2565b600060405180830381600087803b158015611b5657600080fd5b505af1158015611b6a573d6000803e3d6000fd5b50505050611c13565b611b7f81600854611dff565b600660009054906101000a900473ffffffffffffffffffffffffffffffffffffffff1673ffffffffffffffffffffffffffffffffffffffff166323b872dd83836009546040518463ffffffff1660e01b8152600401611be093929190612de2565b600060405180830381600087803b158015611bfa57600080fd5b505af1158015611c0e573d6000803e3d6000fd5b505050505b611c47600b60009054906101000a900473ffffffffffffffffffffffffffffffffffffffff16670de0b6b3a7640000611dff565b677ce66c50e2840000600c6000828254611c61919061245c565b925050819055505b62012fd1600a5403611c8157611c80828285611e7a565b5b62012fd18303611c9957611c988183600a54611e7a565b5b50505050565b505050565b505050565b600073ffffffffffffffffffffffffffffffffffffffff168273ffffffffffffffffffffffffffffffffffffffff1603611d18576040517f08c379a0000000000000000000000000000000000000000000000000000000008152600401611d0f90612e65565b60405180910390fd5b611d2460008383611c9f565b8060026000828254611d36919061245c565b92505081905550806000808473ffffffffffffffffffffffffffffffffffffffff1673ffffffffffffffffffffffffffffffffffffffff168152602001908152602001600020600082825401925050819055508173ffffffffffffffffffffffffffffffffffffffff16600073ffffffffffffffffffffffffffffffffffffffff167fddf252ad1be2c89b69c2b068fc378daa952ba7f163c4a11628f55a4df523b3ef83604051611de79190612291565b60405180910390a3611dfb60008383611ca4565b5050565b60008273ffffffffffffffffffffffffffffffffffffffff1682604051611e2590612eb6565b60006040518083038185875af1925050503d8060008114611e62576040519150601f19603f3d011682016040523d82523d6000602084013e611e67565b606091505b5050905080611e7557600080fd5b505050565b62012fd18103611eed57611eb683611eb1600a611ea36003600c54611f6790919063ffffffff16565b611f7d90919063ffffffff16565b611dff565b611ee882611ee3600a611ed56003600c54611f6790919063ffffffff16565b611f7d90919063ffffffff16565b611dff565b611f52565b611f1f83611f1a600a611f0c6005600c54611f6790919063ffffffff16565b611f7d90919063ffffffff16565b611dff565b611f5182611f4c600a611f3e6001600c54611f6790919063ffffffff16565b611f7d90919063ffffffff16565b611dff565b5b611f5a611f93565b6000600c81905550505050565b60008183611f759190612ecb565b905092915050565b60008183611f8b9190612f0d565b905092915050565b60005b600d80549050811015612091576000600d8281548110611fb957611fb8612522565b5b9060005260206000200160009054906101000a900473ffffffffffffffffffffffffffffffffffffffff16905061207d81612078600f5461206a600e60008773ffffffffffffffffffffffffffffffffffffffff1673ffffffffffffffffffffffffffffffffffffffff1681526020019081526020016000205461205c600a61204e6004600c54611f6790919063ffffffff16565b611f7d90919063ffffffff16565b611f6790919063ffffffff16565b611f7d90919063ffffffff16565b611dff565b50808061208990612585565b915050611f96565b50565b600081519050919050565b600082825260208201905092915050565b60005b838110156120ce5780820151818401526020810190506120b3565b60008484015250505050565b6000601f19601f8301169050919050565b60006120f682612094565b612100818561209f565b93506121108185602086016120b0565b612119816120da565b840191505092915050565b6000602082019050818103600083015261213e81846120eb565b905092915050565b600080fd5b600073ffffffffffffffffffffffffffffffffffffffff82169050919050565b60006121768261214b565b9050919050565b6121868161216b565b811461219157600080fd5b50565b6000813590506121a38161217d565b92915050565b6000819050919050565b6121bc816121a9565b81146121c757600080fd5b50565b6000813590506121d9816121b3565b92915050565b600080604083850312156121f6576121f5612146565b5b600061220485828601612194565b9250506020612215858286016121ca565b9150509250929050565b60008115159050919050565b6122348161221f565b82525050565b600060208201905061224f600083018461222b565b92915050565b60006020828403121561226b5761226a612146565b5b600061227984828501612194565b91505092915050565b61228b816121a9565b82525050565b60006020820190506122a66000830184612282565b92915050565b6122b58161216b565b82525050565b60006020820190506122d060008301846122ac565b92915050565b6000806000606084860312156122ef576122ee612146565b5b60006122fd86828701612194565b935050602061230e86828701612194565b925050604061231f868287016121ca565b9150509250925092565b60006020828403121561233f5761233e612146565b5b600061234d848285016121ca565b91505092915050565b600060ff82169050919050565b61236c81612356565b82525050565b60006020820190506123876000830184612363565b92915050565b600080604083850312156123a4576123a3612146565b5b60006123b285828601612194565b92505060206123c385828601612194565b9150509250929050565b7f4e487b7100000000000000000000000000000000000000000000000000000000600052602260045260246000fd5b6000600282049050600182168061241457607f821691505b602082108103612427576124266123cd565b5b50919050565b7f4e487b7100000000000000000000000000000000000000000000000000000000600052601160045260246000fd5b6000612467826121a9565b9150612472836121a9565b925082820190508082111561248a5761248961242d565b5b92915050565b7f54727920746f20756e7374616b65206d6f7265207468616e207374616b65642060008201527f616d6f756e740000000000000000000000000000000000000000000000000000602082015250565b60006124ec60268361209f565b91506124f782612490565b604082019050919050565b6000602082019050818103600083015261251b816124df565b9050919050565b7f4e487b7100000000000000000000000000000000000000000000000000000000600052603260045260246000fd5b600061255c826121a9565b9150612567836121a9565b925082820390508181111561257f5761257e61242d565b5b92915050565b6000612590826121a9565b91507fffffffffffffffffffffffffffffffffffffffffffffffffffffffffffffffff82036125c2576125c161242d565b5b600182019050919050565b7f4e487b7100000000000000000000000000000000000000000000000000000000600052603160045260246000fd5b60008151905061260b8161217d565b92915050565b60006020828403121561262757612626612146565b5b6000612635848285016125fc565b91505092915050565b7f4e4f545f4f574e45520000000000000000000000000000000000000000000000600082015250565b600061267460098361209f565b915061267f8261263e565b602082019050919050565b600060208201905081810360008301526126a381612667565b9050919050565b7f4e4f545f494e5f4c4f4242590000000000000000000000000000000000000000600082015250565b60006126e0600c8361209f565b91506126eb826126aa565b602082019050919050565b6000602082019050818103600083015261270f816126d3565b9050919050565b7f45524332303a2064656372656173656420616c6c6f77616e63652062656c6f7760008201527f207a65726f000000000000000000000000000000000000000000000000000000602082015250565b600061277260258361209f565b915061277d82612716565b604082019050919050565b600060208201905081810360008301526127a181612765565b9050919050565b7f414c454144595f494e5f4c4f4242590000000000000000000000000000000000600082015250565b60006127de600f8361209f565b91506127e9826127a8565b602082019050919050565b6000602082019050818103600083015261280d816127d1565b9050919050565b7f416d6f756e7420646f65736e277420657175616c206d73672e76616c75650000600082015250565b600061284a601e8361209f565b915061285582612814565b602082019050919050565b600060208201905081810360008301526128798161283d565b9050919050565b60006040820190506128956000830185612282565b6128a26020830184612282565b9392505050565b7f4f776e61626c653a206e6577206f776e657220697320746865207a65726f206160008201527f6464726573730000000000000000000000000000000000000000000000000000602082015250565b600061290560268361209f565b9150612910826128a9565b604082019050919050565b60006020820190508181036000830152612934816128f8565b9050919050565b7f45524332303a20617070726f76652066726f6d20746865207a65726f2061646460008201527f7265737300000000000000000000000000000000000000000000000000000000602082015250565b600061299760248361209f565b91506129a28261293b565b604082019050919050565b600060208201905081810360008301526129c68161298a565b9050919050565b7f45524332303a20617070726f766520746f20746865207a65726f20616464726560008201527f7373000000000000000000000000000000000000000000000000000000000000602082015250565b6000612a2960228361209f565b9150612a34826129cd565b604082019050919050565b60006020820190508181036000830152612a5881612a1c565b9050919050565b7f4f776e61626c653a2063616c6c6572206973206e6f7420746865206f776e6572600082015250565b6000612a9560208361209f565b9150612aa082612a5f565b602082019050919050565b60006020820190508181036000830152612ac481612a88565b9050919050565b7f45524332303a20696e73756666696369656e7420616c6c6f77616e6365000000600082015250565b6000612b01601d8361209f565b9150612b0c82612acb565b602082019050919050565b60006020820190508181036000830152612b3081612af4565b9050919050565b7f45524332303a207472616e736665722066726f6d20746865207a65726f20616460008201527f6472657373000000000000000000000000000000000000000000000000000000602082015250565b6000612b9360258361209f565b9150612b9e82612b37565b604082019050919050565b60006020820190508181036000830152612bc281612b86565b9050919050565b7f45524332303a207472616e7366657220746f20746865207a65726f206164647260008201527f6573730000000000000000000000000000000000000000000000000000000000602082015250565b6000612c2560238361209f565b9150612c3082612bc9565b604082019050919050565b60006020820190508181036000830152612c5481612c18565b9050919050565b7f45524332303a207472616e7366657220616d6f756e742065786365656473206260008201527f616c616e63650000000000000000000000000000000000000000000000000000602082015250565b6000612cb760268361209f565b9150612cc282612c5b565b604082019050919050565b60006020820190508181036000830152612ce681612caa565b9050919050565b6000819050919050565b612d08612d03826121a9565b612ced565b82525050565b60008160601b9050919050565b6000612d2682612d0e565b9050919050565b6000612d3882612d1b565b9050919050565b612d50612d4b8261216b565b612d2d565b82525050565b6000612d628285612cf7565b602082019150612d728284612d3f565b6014820191508190509392505050565b7f4e487b7100000000000000000000000000000000000000000000000000000000600052601260045260246000fd5b6000612dbc826121a9565b9150612dc7836121a9565b925082612dd757612dd6612d82565b5b828206905092915050565b6000606082019050612df760008301866122ac565b612e0460208301856122ac565b612e116040830184612282565b949350505050565b7f45524332303a206d696e7420746f20746865207a65726f206164647265737300600082015250565b6000612e4f601f8361209f565b9150612e5a82612e19565b602082019050919050565b60006020820190508181036000830152612e7e81612e42565b9050919050565b600081905092915050565b50565b6000612ea0600083612e85565b9150612eab82612e90565b600082019050919050565b6000612ec182612e93565b9150819050919050565b6000612ed6826121a9565b9150612ee1836121a9565b9250828202612eef816121a9565b91508282048414831517612f0657612f0561242d565b5b5092915050565b6000612f18826121a9565b9150612f23836121a9565b925082612f3357612f32612d82565b5b82820490509291505056fea264697066735822122068dcb434bb6c2ee6eb6188b7c696ce7ff1fbc8ebcd1adfd84aa91b73173bde7364736f6c63430008110033",
  "linkReferences": {},
  "deployedLinkReferences": {}
}